:020000040000FA
:040000008031132810
:100008007E1480318B1E09280A2811280B1D0D2803
:100018000E2811288431D22480317E1009008031C5
:1000280015288531D5258031AF008531D625803119
:10003800B000F001F101F201F301F401F501F6015C
:1000480020308400003085000F3085317F258031D5
:100058007E10200084316F2CB92885313F258031EE
:100068000130FC007C08F30700302000A3000030BA
:10007800A2000030A1000030A000F0288231F02258
:1000880080310130FC007C08F307F0288231BF2260
:100098008031452882318B22803145288231572290
:1000A80080310730F7000030F800843108248031AF
:1000B80045288331512380314528833121238031DC
:1000C80045288331AF23803145288331812380310E
:1000D8000730F7000030F800843108248031FA3006
:1000E800F7000030F8008431082480314528823137
:1000F800232280314930FC00B930890B8128FC0B60
:10010800812800004930FC00B930890B8928FC0B94
:100118008928000045287518922893289B28F518E7
:10012800962897289B28751D9A289B28A228F201B3
:100138002000AE01AE0A85313F258031200023081A
:10014800031DB1282208031DB128983020023A3037
:10015800213B031CB028B128F028F2012000AE0191
:10016800AE0A8331DD238031F0287308FC00FD01DD
:100178007D08003A0319C128F0287C08003A0319C1
:100188003128013A03194228033A03194A28013A47
:1001980003194E28073A03195228013A03195D2812
:1001A800033A03196128013A031965280F3A03191C
:1001B8006928013A03194228033A03194A28013ADF
:1001C80003194E28073A03195228013A03197B28C4
:1001D800033A03198F28F02808003A29751CF528D6
:1001E800F628542985313F2580310130FB007B08F2
:1001F8002000AB0722000C148C148C162000A601DA
:10020800A701542930082702031D0C292F082602AC
:10021800031C0F291029542922000C158C158C1742
:100228000130FB007B082000AB07022930082702B9
:10023800031D20292F082602031C232924295429B9
:1002480022000C160E140C17142930082702031D5F
:100258002F292F082602031C32293329542922006A
:100268008E141429AB01A601A701542920002B08DC
:10027800FB00FC017C08003A0319432936297B0856
:10028800003A0319F228013A03190629033A031917
:100298001A29013A03192929073A03195429362931
:1002A80008007408031959295A296A29F401813167
:1002B800AA2181318131EE2181318431F2248131C9
:1002C8008431C224813185313325813120002E08C3
:1002D800031D6F2970297D297518732974297D29B3
:1002E80072080319782979297F29803130208131D2
:1002F8007F29F301F20120002C08031D8429852998
:1003080089298031F12081318A29AB0170080319CC
:100318008E298F29A9297208031D93299429A929AF
:10032800F51C972998299C2984313D248131A929D4
:10033800751D9F29A029A429843123248131A92945
:1003480085313F2581312000AE010800F701853154
:10035800B1258131003A0319B229B329B429771498
:100368008531B9258131003A0319BB29BC29BD293A
:10037800F7148531A4258131003A0319C429C52908
:10038800C629771585319A258131003A0319CD2977
:10039800CE29CF29F7158531B5258131003A0319C2
:1003A800D629D729D829771685319F258131003A52
:1003B8000319DF29E029E129F71620002A08770622
:1003C8000319E729E829EB297708AA00ED29770816
:1003D800F5000800751CF129F229F8292000AD0163
:1003E800AD0AF001AC01222A20002D080319FD29CD
:1003F800FE290F2A85313F2581312000A401A5015E
:10040800FA3071020318092A0A2A1F2A0130FB0050
:100418007B08F1071F2A02302502583003192402ED
:100428000318172A182A1D2A0130A4070030A53DF1
:100438001F2AF001F00AAD01AC01AC0A08000A302D
:10044800FB0020008D1C292A2A2A2B2A532AFA016C
:100458008531612582318531D22582317B0884310D
:10046800B02482318531782582318531CF2582319A
:100478007B080A3C8431B02482310130F9007908C4
:10048800FA0732307A02031C4A2A4B2A2C2AFF30F8
:10049800F9007908FB07FB1F522A532A252A8531C0
:1004A800CF2582310800FB01FB0A20008D1C5D2A44
:1004B8005E2A5F2A862AFA0122008C160C148C14F4
:1004C8007B088431B024823122008C120C108C10ED
:1004D8007B080A3C8431B02482310130F900790864
:1004E800FA0707307A02031C7A2A7B2A602A01302D
:1004F800F9007908FB077B08803A753E031C852ABA
:10050800862A592A22008C160C148C140800FB0128
:10051800FB0A20008D1C912A922A932ABA2AFA01F2
:1005280022008C170C158C157B088431B02482317D
:1005380022008C130C118C117B080A3C8431B024E6
:1005480082310130F9007908FA0707307A02031C72
:10055800AE2AAF2A942A0130F9007908FB077B08F4
:10056800803A753E031CB92ABA2A8D2A22008C17B4
:100578000C158C150800FB01FB0A20008D1CC52AF0
:10058800C62AC72AEC2AFA0122000C170C167B0887
:100598008431B024823122000C130C127B080A3CEF
:1005A8008431B02482310130F9007908FA07073024
:1005B8007A02031CE02AE12AC82A0130F9007908E6
:1005C800FB077B08803A753E031CEB2AEC2AC12AFC
:1005D80022000C170C160800FB01FB0A20008D1CDA
:1005E800F62AF72AF82A1D2BFA0122008E140E1477
:1005F8007B088431B024823122008E100E107B08D3
:100608000A3C8431B02482310130F9007908FA07B4
:1006180007307A02031C112B122BF92A0130F9003A
:100628007908FB077B08803A753E031C1C2B1D2BA1
:10063800F22A22008E140E1408000A30FB00200053
:100648008D1C272B282B292B502BFA0122008C17C5
:100658000C158C157B088431B024833122008C134F
:100668000C118C117B080A3C8431B0248331013091
:10067800F9007908FA0707307A02031C442B452B46
:100688002A2BFF30F9007908FB077B08803A7F3E68
:1006980003184F2B502B232B08000A30FB00200097
:1006A8008D1C572B582B592B802BFA0122008C16A6
:1006B8000C148C147B088431B024833122008C12F2
:1006C8000C108C107B080A3C8431B0248331013033
:1006D800F9007908FA0707307A02031C742B752B86
:1006E8005A2BFF30F9007908FB077B08803A7F3ED8
:1006F80003187F2B802B532B08000A30FB002000A7
:100708008D1C872B882B892BAE2BFA0122000E1407
:100718008E147B088431B024833122000E108E1091
:100728007B080A3C8431B02483310130F900790810
:10073800FA0707307A02031CA22BA32B8A2BFF305F
:10074800F9007908FB077B08803A7F3E0318AD2B38
:10075800AE2B832B08000A30FB0020008D1CB52B24
:10076800B62BB72BDC2BFA0122000C170C167B08D2
:100778008431B024833122000C130C127B080A3C0C
:100788008431B02483310130F9007908FA07073041
:100798007A02031CD02BD12BB82BFF30F900790833
:1007A800FB077B08803A7F3E0318DB2BDC2BB12B41
:1007B80008000A30FB0020008D1CE32BE42BE52BFE
:1007C800072CFA018531CF2583317B088431B02489
:1007D80083318531D22583317B080A3C8431B024AA
:1007E80083310130F9007908FA0719307A02031CBD
:1007F800FE2BFF2BE62BFF30F9007908FB07FB1FC8
:10080800062C072CDF2B0800162C20008D1C0D2C25
:100818000E2C0F2C222C0B30F9004830890B122C8F
:10082800F90B122C0130F7020030F83B770A031D50
:10083800212C780A031D212C222C092C0800F51DD7
:10084800262C272C2B2C8531782584312E2C85318C
:10085800D2258431853159258431F51D342C352C28
:10086800392C8531CF2584313C2C85316125843163
:100878000800F51D402C412C452C85317825843104
:10088800482C8531D2258431853169258431F51D7F
:100898004E2C4F2C532C8531CF258431562C853145
:1008A800612584310800220090018C018D018E01A0
:1008B8000830210090008C01FF308D00E0308E0060
:1008C80023008D018C01240090018D0121009517D2
:1008D80022009D01080084319D248431E230F70014
:1008E8000430F8008531852584318531D725843158
:1008F80022000E158B170B17813155218431802C5E
:10090800803113287808FA007708F900FA36F90CCC
:10091800FA36F90C79082500910077080339F900AF
:100928000430F935890B952C1308CF3979049300D5
:100938000800843157248431853127258431853155
:10094800AD25843185310E258431853149258431A1
:100958008531012584310800F800B82CEC300032CC
:10096800890BB32C00320032FF30F7007708F80704
:10097800780A031DC02CC12CB22C0800751EC52C8A
:10098800C62CCC2CFA302000AF000030B000D12C9F
:1009980039302000AF000030B00008000B11760895
:1009A80020009500280829040319DB2CDC2CE12CF5
:1009B80029088A0028080A0084310800F401F40A8A
:1009C80001302000A0070030A13D0030A23D0030DA
:1009D800A33D0130A6070030A73D080070080319A1
:1009E800F62CF72C002D02307106031DFC2CFD2C73
:1009F800FF2CF201F20AF101080021001508C039A4
:100A0800143895000630200095000630F6000B11CA
:100A18008B1608000C302500930095018030940057
:100A28000130960092019101FC309E0508000030CB
:100A3800200091180130F70077080319242D252D7F
:100A4800262D91100800703021009900980122008D
:100A5800960121001A1F312D322D2D2D0800751DEC
:100A6800362D372D3B2D8531C92585313E2D8531D4
:100A7800CC25853108008531782585318531D22509
:100A880085318531512585310800C73020009B000C
:100A98009A01911007309C0008002030F7000330BD
:100AA800F80084318624853108003030F7000030A2
:100AB800F8008431862485310800FF3022008C003C
:100AC8000330F70077088E040800E030F7000130A3
:100AD800F80084318624853108000030F700F800DA
:100AE800843186248531080022008C01FC30F7000F
:100AF80077088E050800640080010131890B802D7C
:100B0800003478082000A9007708A8000800F7003A
:100B1800770820009A000800F700770820009B005B
:100B28000800F700770820009500080020000E0E46
:100B3800890C0139080020000D0C890C01390800C6
:100B480020000D0E890C0139080076082000950058
:100B58000800163021009700080020000D0C01390C
:100B6800080020000D080139080020000D0E013989
:100B7800080020001C11080020001C150800200097
:100B88001A08080020001508080022000E160800A0
:100B980022000E12080022008E15080022008E1175
:0A0BA800080039340034080008008A
:020000040001F9
:04000E00E43FFF1FAD
:00000001FF
