:020000040000FA
:040000008031132810
:100008007E1480318B1E09280A2811280B1D0D2803
:100018000E28112884319B2480317E1009008031FC
:100028001528853197258031AE0085319825803196
:10003800AF007030840000308500083085313625E7
:10004800803120308400003085000E30853136251F
:1000580080317E10200084313A2CB4288531052562
:1000680080310130F40700302000A3000030A200E6
:100078000030A1000030A000EB288231D32280316B
:100088000130F407EB288231A622803144288231DE
:100098007622803144288231462280310730F800A8
:1000A8000030F9008331D3238031442883312C2355
:1000B80080314428833100238031442883318223CE
:1000C800803144288331582380310730F8000030CC
:1000D800F9008331D3238031FA30F8000030F90079
:1000E8008331D3238031442882311622803149302C
:1000F800FC00B930890B7E28FC0B7E2800004930B3
:10010800FC00B930890B8628FC0B8628000044289F
:1001180076188F2890289828F618932894289828D5
:10012800761D972898289E28F3010130F200853122
:100138000525803120002308031DAD282208031D52
:10014800AD28983020023A30213B031CAC28AD285A
:10015800EB28F3010130F2008331AC238031EB2826
:100168007408FC00FD017D08003A0319BC28EB283F
:100178007C08003A03193228013A03194128033A46
:1001880003194728013A03194B28073A03194F283E
:10019800013A03195A28033A03195E28013A031948
:1001A80062280F3A03196628013A03194128033ACD
:1001B80003194728013A03194B28073A03194F280E
:1001C800013A03197828033A03198C28EB28080008
:1001D8003129761CF028F1284B29853105258031F5
:1001E80001302000AB0722000C148C148C16200060
:1001F800A601A7014B292F082702031D05292E0850
:100208002602031C082909294B2922000C158C15E4
:100218008C1701302000AB07FB282F082702031D8D
:1002280017292E082602031C1A291B294B292200EC
:100238000C160E140C170D292F082702031D26294A
:100248002E082602031C29292A294B2922008E144C
:100258000D29AB01A601A7014B2920002B08FC00A2
:10026800FD017D08003A03193A292D297C08003A36
:100278000319ED28013A0319FF28033A0319112934
:10028800013A03192029073A03194B292D29080097
:1002980075080319502951296129F50181319F21D8
:1002A80081318131E32181318431AB248131843141
:1002B8008B2481318431EE2481317208031D652934
:1002C80066297329761869296A2973297308031915
:1002D8006E296F2975298031312081317529F40102
:1002E800F30120002C08031D7A297B297F298031FE
:1002F800EC2081318029AB017008031984298529F4
:100308009E297308031D89298A299E29F61C8D298F
:100318008E2992298431082481319E29761D9529B8
:1003280096299A298331EE2381319E298531052525
:100338008131F2010800F801853173258131003AD5
:100348000319A729A829A929781485317B25813182
:10035800003A0319B029B129B229F8148531612569
:100368008131003A0319B929BA29BB297815853191
:1003780057258131003A0319C229C329C429F81520
:10038800853177258131003A0319CB29CC29CD292C
:10039800781685315C258131003A0319D429D5298D
:1003A800D629F81620002A0878060319DC29DD2941
:1003B800E0297808AA00E2297808F6000800761CE7
:1003C800E629E729ED2901302000AD00F001AC0154
:1003D800152A20002D080319F229F329022A85314C
:1003E800052581312000A401A501FA307102031806
:1003F800FE29FF29122A0130F107122A02302502AC
:1004080058300319240203180A2A0B2A102A01302B
:10041800A4070030A53D122A0130F000AD010130DB
:10042800AC0008000A30FA0020008D1C1C2A1D2A86
:100438001E2A422AF90185314225823185319425C7
:1004480082317A0884317B24823185316625823174
:100458008531912582317A080A3C84317B248231A6
:100468000130F90732307902031C3B2A3C2A1F2A43
:10047800FF30FA07FA1F412A422A182A85319125A6
:10048800823108000130FA0020008D1C4C2A4D2AC8
:100498004E2A712AF90122008C160C148C147A0841
:1004A80084317B24823122008C120C108C107A0843
:1004B8000A3C84317B2482310130F9070730790204
:1004C800031C672A682A4F2A0130FA077A08803AFB
:1004D800753E031C702A712A482A22008C160C14B7
:1004E8008C1408000130FA0020008D1C7C2A7D2A1B
:1004F8007E2AA12AF90122008C170C158C157A087E
:1005080084317B24823122008C130C118C117A08DF
:100518000A3C84317B2482310130F90707307902A3
:10052800031C972A982A7F2A0130FA077A08803A0A
:10053800753E031CA02AA12A782A22008C170C15C4
:100548008C1508000130FA0020008D1CAC2AAD2A59
:10055800AE2ACF2AF90122000C170C167A0884312A
:100568007B24823122000C130C127A080A3C843155
:100578007B2482310130F90707307902031CC52A30
:10058800C62AAF2A0130FA077A08803A753E031C5A
:10059800CE2ACF2AA82A22000C170C1608000130F0
:1005A800FA0020008D1CD92ADA2ADB2AFC2AF90154
:1005B80022008E140E147A0884317B2482312200A2
:1005C8008E100E107A080A3C84317B248231013067
:1005D800F90707307902031CF22AF32ADC2A0130D2
:1005E800FA077A08803A753E031CFB2AFC2AD52AAA
:1005F80022008E140E1408000A30FA0020008D1C08
:10060800062B072B082B2B2BF90122008C170C1516
:100618008C157A0884317B24833122008C130C11C9
:100628008C117A080A3C84317B2483310130F90724
:1006380007307902031C212B222B092BFF30FA07E4
:100648007A08803A7F3E03182A2B2B2B022B0800AE
:100658000A30FA0020008D1C322B332B342B572BF9
:10066800F90122008C160C148C147A0884317B242E
:10067800833122008C120C108C107A080A3C8431C9
:100688007B2483310130F90707307902031C4D2B95
:100698004E2B352BFF30FA077A08803A7F3E031835
:1006A800562B572B2E2B08000A30FA0020008D1CE1
:1006B8005E2B5F2B602B812BF90122000E148E1408
:1006C8007A0884317B24833122000E108E107A0838
:1006D8000A3C84317B2483310130F90707307902E1
:1006E800031C772B782B612BFF30FA077A08803AA6
:1006F8007F3E0318802B812B5A2B08000A30FA0002
:1007080020008D1C882B892B8A2BAB2BF90122000A
:100718000C170C167A0884317B24833122000C13C1
:100728000C127A080A3C84317B2483310130F907A2
:1007380007307902031CA12BA22B8B2BFF30FA0761
:100748007A08803A7F3E0318AA2BAB2B842B08002B
:100758000A30FA0020008D1CB22BB32BB42BD22BFD
:10076800F9018531912583317A0884317B248331DD
:100778008531942583317A080A3C84317B2483317E
:100788000130F90719307902031CCB2BCC2BB52B80
:10079800FF30FA07FA1FD12BD22BAE2B0800E12B22
:1007A80020008D1CD82BD92BDA2BED2B0B30FA001F
:1007B8004830890BDD2BFA0BDD2B0130F8020030B5
:1007C800F93B780A031DEC2B790A031DEC2BED2B62
:1007D800D42B0800F61DF12BF22BF62B853166255C
:1007E8008331F92B85319425833185311F25833158
:1007F800F61DFF2B002C042C853191258331072C05
:100808008531422583310800F61D0B2C0C2C102C49
:10081800853166258431132C8531942584318531C1
:1008280027258431F61D192C1A2C1E2C853191256B
:100838008431212C85314225843108002200900121
:100848008C018D018E010830210090008C01FF3051
:100858008D00E0308E0023008D018C012400900172
:100868008D012100951722009D010800843168241C
:100878008431BA30F8000430F90085313C258431E0
:1008880085319925843122000E158B170B1781317C
:100898004C2184314B2C803113287908FB007808CF
:1008A800FA00FB36FA0CFB36FA0C7A0825009100A0
:1008B80078080339FA000430FA35890B602C1308DC
:1008C800CF397A049300080084312224843184319A
:1008D800E224843185316F2584318431D5248431F3
:1008E80085310F2584318431C82484310800F8000B
:1008F800832CEC300032890B7E2C00320032FF3022
:10090800F807780A031D892C8A2C7D2C0800761E8E
:100918008E2C8F2C952CFA302000AE000030AF00C2
:100928009A2C39302000AE000030AF0008000B11BF
:10093800770820009500280829040319A42CA52C61
:10094800AA2C29088A0028080A008431080070089F
:100958000319AF2CB02CB92C02307106031DB52C2D
:10096800B62CB82C0130F300F10108000130F50075
:1009780001302000A0070030A13DA23DA33D013079
:10098800A6070030A73D080021001508C039143813
:1009980095000630200095000630F7000B118B16E5
:1009A80008000C3025009300950180309400013038
:1009B800960092019101FC309E05080070302100DC
:1009C800990098012200960121001A1FEC2CED2CA9
:1009D800E82C0800761DF12CF22CF62C85318B259D
:1009E8008431F92C85318E25843108002000110CC2
:1009F8000139F80078080319022D032D042D9110F0
:100A08000800853166258531853194258531853104
:100A1800172585310800C73020009B009A019110E6
:100A280007309C0008002030F8000330F9008431BA
:100A38005124853108003030F8000030F900843145
:100A4800512485310800E030F8000130F900843184
:100A58005124853108000030F800F9008431512410
:100A680085310800640080010131890B372D00347D
:100A780079082000A9007808A8000800FF302200A3
:100A88008C0003308E040800F800780820009A00D3
:100A98000800F800780820009B000800F800780893
:100AA80020009500080020000E0E890C013908006E
:100AB80020000D0C890C0139080020000D0E890C4E
:100AC8000139080022008C01FC308E0508007708E7
:100AD800200095000800163021009700080020002B
:100AE8000D0C0139080020000D080139080020000C
:100AF8000D0E0139080020001C11080020001C15EB
:100B0800080020001A080800200015080800220024
:100B18000E16080022000E12080022008E1508008A
:0E0B280022008E110800393400340800080045
:020000040001F9
:04000E00E43FFF1FAD
:00000001FF
