:08000000803102288731FB2F3B
:100DD20022008E11080022008E1508001630210014
:100DE2009700080022008C01FC308E050800FF30BD
:100DF20022008C0003308E0408000030F000F10065
:100E020087315027863108002030F0000330F1008E
:100E120087315027873108004F30F0000030F10051
:100E22008731502787310800C73020009B009A0184
:100E3200911007309C0008008631FE2687318631EA
:100E4200F32687318631E926873108007030210088
:100E5200990098012200960121001A1F312F322F8A
:100E62002D2F08000C30250093009501803094004E
:100E72000130960092019101FC309E0508008731F5
:100E8200672787318731272787318631EF268731D8
:100E92008731332787318731152787310800710859
:100EA200F3007008F200F336F20CF336F20C72081B
:100EB2002500910070080339F2000430F235890BE5
:100EC2005F2F1308CF3972049300080022009001AB
:100ED2008C018D018E010830210090008C01FF30C1
:100EE2008D00E0308E00043023008D008C01240040
:100EF20090018D012100951722009D010800863185
:100F0200F32687318631E92687312030F00003301D
:100F1200F1008731502787310330F5000830F400A3
:100F22007730890B922FF40B922FF50B922F000042
:100F320008007603031D9E2F9F2FA32F8631F326D1
:100F42008731A62F8631E9268731873105278731F8
:100F52007603031DAD2FAE2FB22F8631EC268731DB
:100F6200B52F8631F826873108007603031DBA2F84
:100F7200BB2FBF2F8631F3268731C22F8631E92658
:100F8200873187310D2787317603031DC92FCA2F79
:100F9200CE2F8631EC268731D12F8631F826873144
:100FA2000800873140278731873180278731873191
:100FB2001D27873120008D1CDF2FE02FE42F873182
:100FC200B6278731E72F87319A27873120008E1E77
:100FD200EB2FEC2FEF2F0130F600F02FF6010D1C56
:100FE200F32FF42FF72F0130F700DB2FF701DB2F60
:0E0FF20080310228F601F70120008731D22F4E
:020000040001F9
:08000000FF3FFF3FFF3FFF3F00
:04000E00E43FFF1FAD
:00000001FF
