:020000040000FA
:0400000080311F2804
:100008007E1480318B1E09280A2812280B1D0D2802
:100018000E2812288431AF2480311D288B1D152805
:1000280016281D280B1C19281A281D288531B025CB
:1000380080317E1009008031212885319525803155
:10004800AE00853196258031AF00703084000030D5
:100058008500083085313925803120308400003012
:1000680085000E308531392580317E10200083319E
:10007800FE2B761C40284128BF2870080319452804
:100088004628BF28F001F201853108258031F6287D
:100098007108031950285128F62885310825803120
:1000A8000130F0072000A401A501F6288231E322DF
:1000B80080310130F007F6288231B62280315D2880
:1000C8008231562280315D288231262280310730E4
:1000D800F8000030F9008331E32380315D28833153
:1000E8003C2380315D288331102380315D288331A2
:1000F800922380315D288331682380310730F800EE
:100108000030F9008331E3238031FA30F800003001
:10011800F9008331E32380315D28823186228031E2
:100128004930FC00B930890B9728FC0B9728000050
:100138004930FC00B930890B9F28FC0B9F28000030
:100148005D283A3020002502983003192402031C48
:10015800AE28AF28F6288331BC2380312000A601C1
:10016800A701A401A501F201F001F101A001A1017B
:100178000130AD00F6287008FC00FD017D08003A4A
:100188000319C728F6287C08003A03194C28013AB5
:1001980003195A28033A03196028013A03196428F5
:1001A800073A03196828013A03197328033A03190F
:1001B8007728013A03197B280F3A03197F28013A57
:1001C80003195A28033A03196028013A03196428C5
:1001D800073A03196828013A03199128033A0319C1
:1001E800A528F62808007618FA28FB284C292000AC
:1001F800AC017308031D012902294C290130F300C1
:100208008531082580314C29761C0B290C29662953
:1002180085310825803101302000AC0722000C14FC
:100228008C148C162000A601A70166292F08270226
:10023800031D20292E082602031C232924296629A8
:1002480022000C158C158C1701302000AC071629DC
:100258002F082702031D32292E082602031C3529E0
:100268003629662922000C160E140C1728292F0887
:100278002702031D41292E082602031C442945296B
:10028800662922008E142829AC01A601A701662937
:1002980020002C08FC00FD017D08003A03195529AF
:1002A80048297C08003A03190829013A03191A2930
:1002B800033A03192C29013A03193B29073A031970
:1002C800662948290800740803196B296C297929BB
:1002D800F4018131EC2181318131AF2181318431C7
:1002E8009F2481318431E524813120002D08031DAC
:1002F8007E297F2988297208031983298429892955
:1003080080313D2081318929F2018031F720813106
:100318007208031D90299129AE297108031995299E
:100328009629AE29F61C99299A29A12984313224C3
:10033800813101302000AD00AE29761DA429A52900
:10034800A9298431182481319D29853108258131D5
:100358002000AD0108007618B229B329C829013058
:100368002000A0070030A13D03302102E830031926
:100378002002031CC029C129CC290130F100E83032
:10038800A0000330A100CC292000A001A101F101A7
:10039800761CCF29D029E4290130A2070030A33DDB
:1003A80001302302903003192202031CDC29DD29C5
:1003B800E6290130F2009030A2000130A300E629BE
:1003C800A201A301761CE929EA29EB29F301080017
:1003D800F80185316D258131003A0319F429F52991
:1003E800F6297814853175258131003A0319FD29DC
:1003F800FE29FF29F814853150258131003A031967
:10040800062A072A082A781585314B258131003AB2
:1004180003190F2A102A112AF815853171258131FF
:10042800003A0319182A192A1A2A7816750878061C
:1004380003191F2A202A232A7808F500252A780874
:10044800F60008000130FA0020008D1C2C2A2D2A05
:100458002E2A512AF90122008C160C148C147A08C1
:1004680084318F24823122008C120C108C107A086F
:100478000A3C84318F2482310130F9070730790230
:10048800031C472A482A2F2A0130FA077A08803A9B
:10049800753E031C502A512A282A22008C160C1457
:1004A8008C1408000130FA0020008D1C5C2A5D2A9B
:1004B8005E2A812AF90122008C170C158C157A08FE
:1004C80084318F24823122008C130C118C117A080C
:1004D8000A3C84318F2482310130F90707307902D0
:1004E800031C772A782A5F2A0130FA077A08803AAB
:1004F800753E031C802A812A582A22008C170C1565
:100508008C1508000A30FA0020008D1C8C2A8D2AD0
:100518008E2AB22AF9018531452582318531802517
:1005280082317A0884318F24823185315525823190
:1005380085317D2582317A080A3C84318F248231C5
:100548000130F90732307902031CAB2AAC2A8F2A12
:10055800FF30FA07FA1FB12AB22A882A85317D2589
:10056800823108000130FA0020008D1CBC2ABD2A07
:10057800BE2ADF2AF90122000C170C167A088431EA
:100588008F24823122000C130C127A080A3C843121
:100598008F2482310130F90707307902031CD52AEC
:1005A800D62ABF2A0130FA077A08803A753E031C1A
:1005B800DE2ADF2AB82A22000C170C1608000130A0
:1005C800FA0020008D1CE92AEA2AEB2A0C2BF901F3
:1005D80022008E140E147A0884318F24823122006E
:1005E8008E100E107A080A3C84318F248231013033
:1005F800F90707307902031C022B032BEC2A013080
:10060800FA077A08803A753E031C0B2B0C2BE52A57
:1006180022008E140E1408000A30FA0020008D1CE7
:10062800162B172B182B3B2BF90122008C170C15B6
:100638008C157A0884318F24833122008C130C1195
:100648008C117A080A3C84318F2483310130F907F0
:1006580007307902031C312B322B192BFF30FA0794
:100668007A08803A7F3E03183A2B3B2B122B08005E
:100678000A30FA0020008D1C422B432B442B672B99
:10068800F90122008C160C148C147A0884318F24FA
:10069800833122008C120C108C107A080A3C8431A9
:1006A8008F2483310130F90707307902031C5D2B51
:1006B8005E2B452BFF30FA077A08803A7F3E0318F5
:1006C800662B672B3E2B08000A30FA0020008D1C91
:1006D8006E2B6F2B702B912BF90122000E148E14A8
:1006E8007A0884318F24833122000E108E107A0804
:1006F8000A3C84318F2483310130F90707307902AD
:10070800031C872B882B712BFF30FA077A08803A55
:100718007F3E0318902B912B6A2B08000A30FA00B1
:1007280020008D1C982B992B9A2BBB2BF9012200AA
:100738000C170C167A0884318F24833122000C138D
:100748000C127A080A3C84318F2483310130F9076E
:1007580007307902031CB12BB22B9B2BFF30FA0711
:100768007A08803A7F3E0318BA2BBB2B942B0800DB
:100778000A30FA0020008D1CC22BC32BC42BE22B9D
:10078800F90185317D2583317A0884318F248331BD
:100798008531802583317A080A3C84318F2483315E
:1007A8000130F90719307902031CDB2BDC2BC52B30
:1007B800FF30FA07FA1FE12BE22BBE2B0800F12BC2
:1007C80020008D1CE82BE92BEA2BFD2B0B30FA00BF
:1007D8004830890BED2BFA0BED2B0130F802003075
:1007E800F93B780A031DFC2B790A031DFC2BFD2B12
:1007F800E42B080084317C248331F130F800043084
:10080800F90085313F2583318B170B178531082572
:1008180083318531AF25833122000E15813167215F
:100828008331122C80311F28F61D1B2C1C2C202CE8
:10083800853155258431232C8531802584318531B6
:100848001A258431F61D292C2A2C2E2C85317D253C
:100858008431312C8531452584310800F61D352C2D
:10086800362C3A2C8531552584313D2C853180250F
:100878008431853122258431F61D432C442C482CA3
:1008880085317D2584314B2C8531452584310800FF
:10089800220090018C018D018E010830210090000A
:1008A8008C01FF308D00E0308E00043023008D0075
:1008B8008C01240090018D012100951722009D01D3
:1008C80008007908FB007808FA00FB36FA0CFB36BA
:1008D800FA0C7A082500910078080339FA000430E8
:1008E800FA35890B742C1308CF397A049300080061
:1008F80084314C2484318431D9248431853169256B
:1009080084318431CC248431853112258431843179
:10091800BF2484310800F800972CEC300032890B92
:10092800922C00320032FF30F807780A031D9D2C04
:100938009E2C912C0800761EA22CA32CA92CFA30F0
:100948002000AE000030AF00AE2C39302000AE00E1
:100958000030AF0008000B11770820009500280828
:1009680029040319B82CB92CBE2C29088A00280898
:100978000A008431080021001508C0391438950090
:100988000630200095000630F7000B118B16080082
:100998000C302500930095018030940001309600BA
:1009A80092019101FC309E050800703021009900E9
:1009B80098012200960121001A1FE32CE42CDF2C59
:1009C8000800761DE82CE92CED2C8531832584312F
:1009D800F02C85318625843108000130F40001307F
:1009E8002000A4070030A53D0130A6070030A73D30
:1009F80008002000110C0139F80078080319052DAA
:100A0800062D072D91100800853155258531853132
:100A18008025853185312A2585310800C730200099
:100A28009B009A01911007309C0008003030F800B4
:100A38000030F9008431652485310800E030F80081
:100A48000130F90084316524853108002030F80030
:100A58000330F90084316524853108000030F8003E
:100A6800F900843165248531080064008001013172
:100A7800890B3A2D003479082000A9007808A800CD
:100A88000800FF3022008C0003308E04080020008C
:100A98000E0E890C0139080020000D0E890C013951
:100AA800080022008C01FC308E050800F800780848
:100AB80020009A000800F800780820009B00080031
:100AC800F8007808200095000800163021009700EB
:100AD800080020000D0C0139080020000D0801391C
:100AE800080020000D0E0139080077082000950045
:100AF800080022008E15080022008E11080022002E
:100B08000E16080022000E12080020001C11080012
:100B180020001C15080020001A08080020001508ED
:100B2800080039340034E834033498343A349034C3
:100B3800013430340034E034013420340334643474
:100B480000340134103408340434023401340A34D3
:0A0B58000734FA34393408000800AD
:020000040001F9
:04000E00E43FFF1FAD
:00000001FF
