:020000040000FA
:0400000080311F2804
:100008007E1480318B1E09280A2812280B1D0D2802
:100018000E2812288431AF2480311D288B1D152805
:1000280016281D280B1C19281A281D288531B025CB
:1000380080317E1009008031212885319525803155
:10004800AE00853196258031AF00703084000030D5
:100058008500083085313925803120308400003012
:1000680085000E308531392580317E10200083319E
:10007800FE2B20002D080319422843284528F201A9
:1000880003297208031D49284A284B280329761C8E
:100098004E284F28CC287008031953285428CC28F8
:1000A800F001F2018531082580310329710803190F
:1000B8005E285F2803298531082580310130F00743
:1000C8002000A401A50103298231E32280310130F7
:1000D800F00703298231B62280316B2882318622CB
:1000E80080316B288231562280310730F800003089
:1000F800F9008331E32380316B2883313C2380313D
:100108006B288331102380316B288331922380310F
:100118006B288331682380310730F8000030F900FC
:100128008331E3238031FA30F8000030F90083315D
:10013800E32380316B288231262280314930FC004C
:10014800B930890BA528FC0BA52800004930FC0014
:10015800B930890BAD28FC0BAD2800006B283A306C
:100168002502983003192402031CBB28BC28032944
:100178008331BC2380312000A601A701A401A50179
:10018800F201F001F101A001A1010130AD00032944
:100198007008FC00FD017D08003A0319D4280329E2
:1001A8007C08003A03195A28013A03196828033AC7
:1001B80003196E28013A03197228073A0319762899
:1001C800013A03198128033A03198528013A0319CA
:1001D80089280F3A03198D28013A03196828033A28
:1001E80003196E28013A03197228073A0319762869
:1001F800013A03199F28033A0319B3280329080071
:1002080076180729082959292000AC017308031D0D
:100218000E290F2959290130F3008531082581312C
:100228005929761C182919297329853108258131FE
:1002380001302000AC0722000C148C148C1620000E
:10024800A601A70173292F082702031D2D292E08AF
:100258002602031C30293129732922000C158C151C
:100268008C1701302000AC0723292F082702031D13
:100278003F292E082602031C4229432973292200FC
:100288000C160E140C1735292F082702031D4E29AA
:100298002E082602031C51295229732922008E1484
:1002A8003529AC01A601A701732920002C08FC0000
:1002B800FD017D08003A0319622955297C08003A96
:1002C80003191529013A03192729033A031939296A
:1002D800013A03194829073A0319732955290800CF
:1002E8007618772978298D2901302000A007003059
:1002F800A13D03302102E83003192002031C85299F
:10030800862991290130F100E830A0000330A100CE
:1003180091292000A001A101F101761C94299529B9
:10032800A9290130A2070030A33D013023029030F3
:1003380003192202031CA129A229AB290130F200CA
:100348009030A2000130A300AB29A201A301761CC2
:10035800AE29AF29B029F301080074080319B5299B
:10036800B629C329F4018131EC218131813174210D
:10037800813184319F2481318431E5248131803178
:100388003D2081318131042181317208031DCD293D
:10039800CE29EB2971080319D229D329EB29F61C98
:1003A800D629D729DE298431322481310130200031
:1003B800AD00EB29761DE129E229E62984311824CC
:1003C8008131DA298531082581312000AD01080005
:1003D800F801853171258131003A0319F429F5298D
:1003E800F6297814853179258131003A0319FD29D8
:1003F800FE29FF29F81485315F258131003A031958
:10040800062A072A082A781585315A258131003AA3
:1004180003190F2A102A112AF815853175258131FB
:10042800003A0319182A192A1A2A7816750878061C
:1004380003191F2A202A232A7808F500252A780874
:10044800F60008000A30FA0020008D1C2C2A2D2AFC
:100458002E2A522AF9018531452582318531922586
:1004680082317A0884318F24823185316425823142
:1004780085318F2582317A080A3C84318F24823174
:100488000130F90732307902031C4B2A4C2A2F2AF3
:10049800FF30FA07FA1F512A522A282A85318F2558
:1004A800823108000130FA0020008D1C5C2A5D2A88
:1004B8005E2A812AF90122008C160C148C147A0801
:1004C80084318F24823122008C120C108C107A080F
:1004D8000A3C84318F2482310130F90707307902D0
:1004E800031C772A782A5F2A0130FA077A08803AAB
:1004F800753E031C802A812A582A22008C160C1467
:100508008C1408000130FA0020008D1C8C2A8D2ADA
:100518008E2AB12AF90122008C170C158C157A083D
:1005280084318F24823122008C130C118C117A08AB
:100538000A3C84318F2482310130F907073079026F
:10054800031CA72AA82A8F2A0130FA077A08803ABA
:10055800753E031CB02AB12A882A22008C170C1574
:100568008C1508000130FA0020008D1CBC2ABD2A19
:10057800BE2ADF2AF90122000C170C167A088431EA
:100588008F24823122000C130C127A080A3C843121
:100598008F2482310130F90707307902031CD52AEC
:1005A800D62ABF2A0130FA077A08803A753E031C1A
:1005B800DE2ADF2AB82A22000C170C1608000130A0
:1005C800FA0020008D1CE92AEA2AEB2A0C2BF901F3
:1005D80022008E140E147A0884318F24823122006E
:1005E8008E100E107A080A3C84318F248231013033
:1005F800F90707307902031C022B032BEC2A013080
:10060800FA077A08803A753E031C0B2B0C2BE52A57
:1006180022008E140E1408000A30FA0020008D1CE7
:10062800162B172B182B3B2BF90122008C170C15B6
:100638008C157A0884318F24833122008C130C1195
:100648008C117A080A3C84318F2483310130F907F0
:1006580007307902031C312B322B192BFF30FA0794
:100668007A08803A7F3E03183A2B3B2B122B08005E
:100678000A30FA0020008D1C422B432B442B672B99
:10068800F90122008C160C148C147A0884318F24FA
:10069800833122008C120C108C107A080A3C8431A9
:1006A8008F2483310130F90707307902031C5D2B51
:1006B8005E2B452BFF30FA077A08803A7F3E0318F5
:1006C800662B672B3E2B08000A30FA0020008D1C91
:1006D8006E2B6F2B702B912BF90122000E148E14A8
:1006E8007A0884318F24833122000E108E107A0804
:1006F8000A3C84318F2483310130F90707307902AD
:10070800031C872B882B712BFF30FA077A08803A55
:100718007F3E0318902B912B6A2B08000A30FA00B1
:1007280020008D1C982B992B9A2BBB2BF9012200AA
:100738000C170C167A0884318F24833122000C138D
:100748000C127A080A3C84318F2483310130F9076E
:1007580007307902031CB12BB22B9B2BFF30FA0711
:100768007A08803A7F3E0318BA2BBB2B942B0800DB
:100778000A30FA0020008D1CC22BC32BC42BE22B9D
:10078800F90185318F2583317A0884318F248331AB
:100798008531922583317A080A3C84318F2483314C
:1007A8000130F90719307902031CDB2BDC2BC52B30
:1007B800FF30FA07FA1FE12BE22BBE2B0800F12BC2
:1007C80020008D1CE82BE92BEA2BFD2B0B30FA00BF
:1007D8004830890BED2BFA0BED2B0130F802003075
:1007E800F93B780A031DFC2B790A031DFC2BFD2B12
:1007F800E42B080084317C248331F130F800043084
:10080800F90085313F2583318B170B178531082572
:1008180083318531AF25833122000E158131B12115
:100828008331122C80311F28F61D1B2C1C2C202CE8
:10083800853164258431232C853192258431853195
:1008480022258431F61D292C2A2C2E2C85318F2522
:100858008431312C8531452584310800F61D352C2D
:10086800362C3A2C8531642584313D2C85319225EE
:10087800843185312A258431F61D432C442C482C9B
:1008880085318F2584314B2C8531452584310800ED
:10089800220090018C018D018E010830210090000A
:1008A8008C01FF308D00E0308E00043023008D0075
:1008B8008C01240090018D012100951722009D01D3
:1008C80008007908FB007808FA00FB36FA0CFB36BA
:1008D800FA0C7A082500910078080339FA000430E8
:1008E800FA35890B742C1308CF397A049300080061
:1008F80084314C2484318431D924843185316D2567
:1009080084318431CC248431853112258431843179
:10091800BF2484310800F800972CEC300032890B92
:10092800922C00320032FF30F807780A031D9D2C04
:100938009E2C912C0800761EA22CA32CA92CFA30F0
:100948002000AE000030AF00AE2C39302000AE00E1
:100958000030AF0008000B11770820009500280828
:1009680029040319B82CB92CBE2C29088A00280898
:100978000A008431080021001508C0391438950090
:100988000630200095000630F7000B118B16080082
:100998000C302500930095018030940001309600BA
:1009A80092019101FC309E050800703021009900E9
:1009B80098012200960121001A1FE32CE42CDF2C59
:1009C8000800761DE82CE92CED2C85318925843129
:1009D800F02C85318C25843108000130F400013079
:1009E8002000A4070030A53D0130A6070030A73D30
:1009F80008002000110C0139F80078080319052DAA
:100A0800062D072D91100800853164258531853123
:100A18009225853185311A2585310800C730200097
:100A28009B009A01911007309C0008002030F800C4
:100A38000330F90084316524853108003030F8002E
:100A48000030F9008431652485310800E030F80071
:100A58000130F90084316524853108000030F80040
:100A6800F900843165248531080064008001013172
:100A7800890B3A2D003479082000A9007808A800CD
:100A88000800FF3022008C0003308E040800F800B4
:100A9800780820009A000800F800780820009B00D9
:100AA8000800F800780820009500080020000E0EC5
:100AB800890C0139080020000D0E890C0139080045
:100AC80022008C01FC308E05080077082000950074
:100AD8000800163021009700080020000D0C01398D
:100AE800080020000D080139080020000D0E01390A
:100AF800080020001C11080020001C150800200018
:100B08001A08080020001508080022000E16080020
:100B180022000E12080022008E15080022008E11F5
:100B2800080039340034E834033498343A349034C3
:100B3800013430340034E034013420340334643474
:100B480000340134103408340434023401340A34D3
:0A0B58000734FA34393408000800AD
:020000040001F9
:04000E00E43FFF1FAD
:00000001FF
