:020000040000FA
:040000008031132810
:100008007E1480318B1E09280A2811280B1D0D2803
:100018000E28112884316D2480317E10090080312A
:100028001528853154258031AB008531552580311F
:10003800AC00F001F101F201F301F401F501F60160
:10004800F701A001A101A201A301A401A501A60134
:10005800A701A801A901AA017E1020008331BD2BA8
:100068007208031D38283928C628F001FD28843174
:10007800C82480310130F00700302000A300003090
:10008800A2000030A1000030A000FD288231A22289
:1000980080310130F007FD288231752280314D28EA
:1000A8008231452280314D28823115228031073036
:1000B800F8000030F9008331A22380314D288231C5
:1000C800FB2280314D288231CF2280314D28833167
:1000D800512380314D288331272380310730F800A0
:1000E8000030F9008331A2238031FA30F800003063
:1000F800F9008331A22380314D288131E5218031F7
:100108004930FC00B930890B8728FC0B8728000090
:100118004930FC00B930890B8F28FC0B8F28000070
:100128004D28761898289928A128F6189C289D28E3
:10013800A128761DA028A128A728F001F201843162
:10014800C8248031FD2820002308031DB628220872
:10015800031DB628983020023A30213B031CB528ED
:10016800B628FD2883317B2380312000A601A70112
:100178000030A3000030A2000030A1000030A00031
:10018800F20139287008FC00FD017D08003A0319C6
:10019800CE28FD287C08003A03193B28013A0319A8
:1001A8004A28033A03195028013A03195428073AF0
:1001B80003195828013A03196328033A03196728D1
:1001C800013A03196B280F3A03196F28013A0319EA
:1001D8004A28033A03195028013A03195428073AC0
:1001E80003195828013A03198128033A0319952855
:1001F800FD2808007208031902290329042969291E
:100208007618072908295029F1016929761C0D2932
:100218000E2969298431C82480310130F107220070
:100228000C148C148C162000A601A7016929200043
:100238002C082702031D22292B082602031C252926
:100248002629692922000C158C158C170130F10715
:10025800172920002C082702031D34292B08260201
:10026800031C37293829692922000C160E140C178B
:100278002A2920002C082702031D44292B082602BE
:10028800031C47294829692922008E142A29F101CB
:100298002000A601A70169297108FC00FD017D085D
:1002A800003A031958294B297C08003A03190A29EE
:1002B800013A03191B29033A03192D29013A031995
:1002C8003D29073A031969294B290800F8018531A6
:1002D80030258131003A0319722973297429781459
:1002E800853138258131003A03197B297C297D29FC
:1002F800F81485311E258131003A0319842985298E
:1003080086297815853114258131003A03198D29FC
:100318008E298F29F815853134258131003A031942
:100328009629972998297816853119258131003A17
:1003380003199F29A029A129F81675087806031919
:10034800A629A729AA297808F500AC297808F60073
:10035800080074080319B129B229C229F4018131AE
:100368006A21813184315D2481318431B124813124
:10037800F61EBF29C029C2290130F200803134207D
:1003880081318031FE2081317208031DCC29CD29AD
:10039800E4297618D029D129E429F61CD429D529AD
:1003A800D9298331F1238131E429761DDC29DD291E
:1003B800E1298331D7238131E4298431C82481316B
:1003C80008000A30FA0020008D1CEB29EC29ED29E1
:1003D800112AF9018431FF24813185315125813178
:1003E8007A0884314D248131853123258131853145
:1003F8004E2581317A080A3C84314D2481310130FF
:10040800F90732307902031C0A2A0B2AEE29FF3039
:10041800FA07FA1F102A112AE72985314E2581315A
:1004280008000130FA0020008D1C1B2A1C2A1D2AF6
:10043800402AF90122008C160C148C147A08843195
:100448004D24823122008C120C108C107A080A3C40
:1004580084314D2482310130F90707307902031CB9
:10046800362A372A1E2A0130FA077A08803A753E5A
:10047800031C3F2A402A172A22008C160C148C14BD
:1004880008000130FA0020008D1C4B2A4C2A4D2A06
:10049800702AF90122008C170C158C157A08843102
:1004A8004D24823122008C130C118C117A080A3CDD
:1004B80084314D2482310130F90707307902031C59
:1004C800662A672A4E2A0130FA077A08803A753E6A
:1004D800031C6F2A702A472A22008C170C158C15CA
:1004E80008000130FA0020008D1C7B2A7C2A7D2A16
:1004F8009E2AF90122000C170C167A0884314D2423
:10050800823122000C130C127A080A3C84314D24E3
:1005180082310130F90707307902031C942A952AA1
:100528007E2A0130FA077A08803A753E031C9D2A14
:100538009E2A772A22000C170C1608000130FA00B0
:1005480020008D1CA82AA92AAA2ACB2AF901220050
:100558008E140E147A0884314D24823122008E10B4
:100568000E107A080A3C84314D2482310130F90793
:1005780007307902031CC12AC22AAB2A0130FA07C4
:100588007A08803A753E031CCA2ACB2AA42A22007C
:100598008E140E1408000A30FA0020008D1CD52A8B
:1005A800D62AD72AFA2AF90122008C170C158C159D
:1005B8007A0884314D24823122008C130C118C115D
:1005C8007A080A3C84314D2482310130F90707301A
:1005D8007902031CF02AF12AD82AFF30FA077A0890
:1005E800803A7F3E0318F92AFA2AD12A08000A30ED
:1005F800FA0020008D1C012B022B032B262BF9015E
:1006080022008C160C148C147A0884314D24823103
:1006180022008C120C108C107A080A3C84314D246C
:1006280082310130F90707307902031C1C2B1D2B7E
:10063800042BFF30FA077A08803A7F3E0318252BEF
:10064800262BFD2A08000A30FA0020008D1C2D2BCD
:100658002E2B2F2B502BF90122000E148E147A0802
:1006680084314D24833122000E108E107A080A3C02
:1006780084314D2483310130F90707307902031C96
:10068800462B472B302BFF30FA077A08803A7F3EFB
:1006980003184F2B502B292B08000A30FA00200092
:1006A8008D1C572B582B592B7A2BF90122000C172C
:1006B8000C167A0884314D24833122000C130C1255
:1006C8007A080A3C84314D2483310130F907073018
:1006D8007902031C702B712B5A2BFF30FA077A080A
:1006E800803A7F3E0318792B7A2B532B08000A3067
:1006F800FA0020008D1C812B822B832BA12BF90162
:1007080085314E2583317A0884314D2483318531F2
:10071800512583317A080A3C84314D2483310130D4
:10072800F90719307902031C9A2B9B2B842BFF3075
:10073800FA07FA1FA02BA12B7D2B0800B02B200055
:100748008D1CA72BA82BA92BBC2B0B30FA004830EB
:10075800890BAC2BFA0BAC2B0130F8020030F93BBB
:10076800780A031DBB2B790A031DBB2BBC2BA32BBB
:10077800080084313A2483317D30F8000430F900D0
:100788008431F92483318B170B178431C8248331C2
:1007980085316F25833122000E158131AD218331DA
:1007A800D12B80311328F61DDA2BDB2BDF2B85317B
:1007B80023258331E22B8531512583318431E2248D
:1007C8008331F61DE82BE92BED2B85314E2583313E
:1007D800F02B8431FF2483310800F61DF42BF52B10
:1007E800F92B853123258331FC2B85315125833124
:1007F8008431EA248331F61D022C032C072C853121
:100808004E2583310A2C8431FF24833108002200CD
:1008180090018C018D018E010830210090008C011F
:10082800FF308D00E0308E0023008D018C01240004
:1008380090018D012100951722009D01080079087B
:10084800FB007808FA00FB36FA0CFB36FA0C7A083B
:100858002500910078080339FA000430FA35890B2D
:10086800322C1308CF397A049300080084310B2402
:1008780084318431A524843185312C258431843117
:10088800982484318431D224843184318B24843176
:100898000800F800552CEC300032890B502C00323F
:1008A8000032FF30F807780A031D5B2C5C2C4F2CB4
:1008B8000800761E602C612C672CFA302000AB00F3
:1008C8000030AC006C2C39302000AB000030AC009C
:1008D80008000B117708200095002808290403193F
:1008E800762C772C7C2C29088A0028080A00843169
:1008F80008000130F40001302000A0070030A13DBD
:10090800A23DA33D0130A6070030A73D0800210005
:100918001508C039143895000630200095000630B7
:10092800F7000B118B1608000C3025009300950179
:10093800803094000130960092019101FC309E05B0
:1009480008007030210099009801220096012100CA
:100958001A1FAF2CB02CAB2C0800761DB42CB52C6C
:10096800B92C853148258431BC2C85314B258431FF
:1009780008002000110C0139F80078080319C52C6B
:10098800C62CC72C91100800853123258431853168
:10099800512584318431DA2484310800C73020009D
:1009A8009B009A01911007309C0008002030F80045
:1009B8000330F90084312324843108003030F800F2
:1009C8000030F9008431232484310800E030F80035
:1009D8000130F90084312324843108000030F80004
:1009E800F900843123248431080079082000A90003
:1009F8007808A8000800FF3022008C0003308E041D
:100A08000800F800780820009A000800F800780824
:100A180020009B000800F8007808200095000800D6
:100A280020000E0E890C0139080020000D0C890CDD
:100A38000139080020000D0E890C01390800220038
:100A48008C01FC308E05080077082000950008000E
:100A5800163021009700080020000D0C013908000D
:100A680020000D080139080020000D0E013908008A
:100A780020001C11080020001C15080020001A087E
:100A8800080020001508080022000E1608002200A1
:100A98000E12080022008E15080022008E11080090
:100AA80039340034E834033498343A349034013417
:100AB80030340034E03401342034033464340034F6
:100AC80001342034103408340434023401340A3434
:080AD8000734FA343934080038
:020000040001F9
:04000E00E43FFF1FAD
:00000001FF
