:020000040000FA
:040000008031132810
:100008007E1480318B1E09280A2811280B1D0D2803
:100018000E2811288431692480317E10090080312E
:100028001528853150258031A90085315125803129
:10003800AA00F001F101F201F301F401F501F60162
:10004800F701A001A101A201A301A401A501A60134
:10005800A701A8017E1020008331B92B730803196A
:10006800362837283A28F401F001F8287408031DC7
:100078003E283F28C128F001F8288431C424803163
:100088000130F00700302000A3000030A20000304B
:10009800A1000030A000F82882319E228031013072
:1000A800F007F828823171228031532882314122A9
:1000B800803153288231112280310730F800003016
:1000C800F90083319E23803153288231F722803111
:1000D80053288231CB228031532883314D238031FC
:1000E80053288331232380310730F8000030F9008A
:1000F80083319E238031FA30F8000030F9008331D3
:100108009E23803153288131E12180314930FC0020
:10011800B930890B8D28FC0B8D2800004930FC0074
:10012800B930890B9528FC0B9528000053287618C0
:100138009E289F28A328F61CA228A328AA28F001F5
:10014800F4010130F3008431C424803120002308F5
:10015800031DB9282208031DB928983020023A3017
:10016800213B031CB828B928F8288331772380312C
:10017800F001F4010130F300F8287008FC00FD01DB
:100188007D08003A0319C928F8287C08003A0319A1
:100198004128013A03195028033A03195628013A0D
:1001A80003195A28073A03195E28013A03196928DE
:1001B800033A03196D28013A031971280F3A0319F4
:1001C8007528013A03195028033A03195628013AA9
:1001D80003195A28073A03195E28013A0319872890
:1001E800033A03199B28F828080074080319FD2806
:1001F800FE28FF2864297618022903294B29F101D2
:100208006429761C0829092964298431C424803189
:100218000130F10722000C148C148C162000A40164
:10022800A501642920002A082502031D1D29290883
:100238002402031C20292129642922000C158C156D
:100248008C170130F107122920002A082502031D06
:100258002F2929082402031C322933296429220062
:100268000C160E140C17252920002A082502031D38
:100278003F2929082402031C422943296429220012
:100288008E142529F1012000A401A5016429710813
:10029800FC00FD017D08003A0319532946297C0812
:1002A800003A03190529013A03191629033A0319D3
:1002B8002829013A03193829073A031964294629D4
:1002C8000800F80185312C258131003A03196D2980
:1002D8006E296F297814853134258131003A031944
:1002E800762977297829F81485311A258131003A39
:1002F80003197F29802981297815853110258131B5
:10030800003A0319882989298A29F8158531302561
:100318008131003A03199129922993297816853158
:1003280015258131003A03199A299B299C29F81629
:10033800720878060319A129A229A5297808F200CC
:10034800A7297808F600080075080319AC29AD2913
:10035800BD29F501813165218131843159248131EB
:100368008431AD248131F61EBA29BB29BD2901305B
:10037800F4008031322081318031F92081317408D4
:10038800031DC729C829E0297618CB29CC29E029DB
:10039800F61CCF29D029D4298331ED238131E029D6
:1003A800761DD729D829DC298331D3238131E02947
:1003B8008431C4248131F30108000A30FA00200096
:1003C8008D1CE729E829E9290D2AF9018431FB2444
:1003D800813185314D2581317A0884314924813133
:1003E80085311F25813185314A2581317A080A3CBA
:1003F8008431492481310130F90732307902031CF4
:10040800062A072AEA29FF30FA07FA1F0C2A0D2ABA
:10041800E32985314A25813108000130FA0020009E
:100428008D1C172A182A192A3C2AF90122008C1631
:100438000C148C147A0884314924823122008C12DD
:100448000C108C107A080A3C84314924823101301E
:10045800F90707307902031C322A332A1A2A013095
:10046800FA077A08803A753E031C3B2A3C2A132A6D
:1004780022008C160C148C1408000130FA0020009D
:100488008D1C472A482A492A6C2AF90122008C1710
:100498000C158C157A0884314924823122008C137A
:1004A8000C118C117A080A3C8431492482310130BC
:1004B800F90707307902031C622A632A4A2A0130A5
:1004C800FA077A08803A753E031C6B2A6C2A432A7D
:1004D80022008C170C158C1508000130FA0020003A
:1004E8008D1C772A782A792A9A2AF90122000C1772
:1004F8000C167A0884314924823122000C130C121C
:100508007A080A3C8431492482310130F9070730DE
:100518007902031C902A912A7A2A0130FA077A086C
:10052800803A753E031C992A9A2A732A22000C17CE
:100538000C1608000130FA0020008D1CA42AA52AF8
:10054800A62AC72AF90122008E140E147A088431CB
:100558004924823122008E100E107A080A3C843118
:10056800492482310130F90707307902031CBD2A7A
:10057800BE2AA72A0130FA077A08803A753E031C7A
:10058800C62AC72AA02A22008E140E1408000A3090
:10059800FA0020008D1CD12AD22AD32AF62AF90182
:1005A80022008C170C158C157A0884314924823165
:1005B80022008C130C118C117A080A3C84314924CE
:1005C80082310130F90707307902031CEC2AED2A41
:1005D800D42AFF30FA077A08803A7F3E0318F52AB2
:1005E800F62ACD2A08000A30FA0020008D1CFD2AC0
:1005F800FE2AFF2A222BF90122008C160C148C14D7
:100608007A0884314924823122008C120C108C1013
:100618007A080A3C8431492482310130F9070730CD
:100628007902031C182B192B002BFF30FA077A08C4
:10063800803A7F3E0318212B222BF92A08000A3022
:10064800FA0020008D1C292B2A2B2B2B4C2BF9016F
:1006580022000E148E147A08843149248331220032
:100668000E108E107A080A3C8431492483310130F7
:10067800F90707307902031C422B432B2C2BFF3040
:10068800FA077A08803A7F3E03184B2B4C2B252B10
:1006980008000A30FA0020008D1C532B542B552BD0
:1006A800762BF90122000C170C167A08843149249C
:1006B800833122000C130C127A080A3C8431492435
:1006C80083310130F90707307902031C6C2B6D2B3D
:1006D800562BFF30FA077A08803A7F3E0318752BAD
:1006E800762B4F2B08000A30FA0020008D1C7D2B3A
:1006F8007E2B7F2B9D2BF90185314A2583317A0882
:1007080084314924833185314D2583317A080A3C67
:100718008431492483310130F90719307902031CE7
:10072800962B972B802BFF30FA07FA1F9C2B9D2BBB
:10073800792B0800AC2B20008D1CA32BA42BA52BF8
:10074800B82B0B30FA004830890BA82BFA0BA82BD2
:100758000130F8020030F93B780A031DB72B790AFB
:10076800031DB72BB82B9F2B080084313624833107
:100778007930F8000430F9008431F524833184316C
:10078800C424833185316B25833122000E158B17E4
:100798000B178131A8218331CD2B80311328F61D09
:1007A800D62BD72BDB2B85311F258331DE2B8531CB
:1007B8004D2583318431DE248331F61DE42BE52B6E
:1007C800E92B85314A258331EC2B8431FB24833195
:1007D8000800F61DF02BF12BF52B85311F258331F1
:1007E800F82B85314D2583318431E6248331F61D7C
:1007F800FE2BFF2B032C85314A258331062C8431AF
:10080800FB2483310800220090018C018D018E01A8
:100818000830210090008C01FF308D00E0308E0000
:1008280023008D018C01240090018D012100951772
:1008380022009D0108007908FB007808FA00FB36C1
:10084800FA0CFB36FA0C7A0825009100780803396F
:10085800FA000430FA35890B2E2C1308CF397A04A4
:10086800930008008431072484318431A124843121
:100878008531282584318431942484318431CE24EF
:1008880084318431872484310800F800512CEC30FD
:100898000032890B4C2C00320032FF30F807780AFE
:1008A800031D572C582C4B2C0800761E5C2C5D2CF5
:1008B800632CFA302000A9000030AA00682C3930D7
:1008C8002000A9000030AA0008000B1177082000BA
:1008D8009500260827040319722C732C782C2708F6
:1008E8008A0026080A00843108000130F50001302A
:1008F8002000A0070030A13DA23DA33D0130A40780
:100908000030A53D080021001508C03914389500AD
:100918000630200095000630F7000B118B160800F2
:100928000C3025009300950180309400013096002A
:1009380092019101FC309E05080070302100990059
:1009480098012200960121001A1FAB2CAC2CA72C71
:100958000800761DB02CB12CB52C85314425843186
:10096800B82C85314725843108002000110C013945
:10097800F80078080319C12CC22CC32C9110080068
:1009880085311F25843185314D2584318431D62424
:1009980084310800C73020009B009A01911007306D
:1009A8009C0008002030F8000330F90084311F242F
:1009B800843108003030F8000030F90084311F24F9
:1009C80084310800E030F8000130F90084311F2438
:1009D800843108000030F800F90084311F24843184
:1009E800080079082000A7007808A6000800FF3052
:1009F80022008C0003308E040800F80078082000DC
:100A08009A000800F800780820009B000800F80009
:100A1800780820009500080020000E0E890C013986
:100A2800080020000D0C890C0139080020000D0E6B
:100A3800890C0139080022008C01FC308E05080061
:100A4800770820009500080016302100970008005C
:100A580020000D0C0139080020000D08013908009C
:100A680020000D0E0139080020001C11080020008C
:100A78001C15080020001A080800200015080800A6
:100A880022000E16080022000E12080022008E1501
:100A9800080022008E11080039340034E834033489
:100AA80098343A349034013430340034E03401342A
:100AB80020340334643400340134203410340834CE
:100AC8000434023401340A340734FA34393408005F
:020AD800080014
:020000040001F9
:04000E00E43FFF1FAD
:00000001FF
