:020000040000FA
:040000008031132810
:100008007E1480318B1E09280A2811280B1D0D2803
:100018000E2811288631242680317E10090080316F
:100028001528873127278031FC0087312827803120
:10003800FD00F701F801F901FA01FB012030840005
:100048000030850011308631D12680317E102000A5
:100058008531C12DB1288631912680310130F500D6
:1000680075082000AF070030A3000030A200003060
:10007800A1000030A000042985310125803101301C
:10008800F50075082000AF0704298431A5248031C4
:10009800432883312C2380314328843149248031FB
:1000A80043288231CA22803143288331ED238031AD
:1000B8004328823199228031432883318E2380312D
:1000C80043288431D3248031432883315D23803110
:1000D800432884317724803143288231FB228031C0
:1000E800432884311B24803143288331BF23803146
:1000F800FA30F0000030F10085315A25803143286C
:1001080082316522803143287A188B288C289428DC
:10011800FA188F28902894287A1D932894289A28CA
:10012800F901AE01AE0A86319126803120002308FC
:10013800031DA9282208031DA928983020023A3057
:10014800213B031CA828A9280429F9012000AE0195
:10015800AE0A85312F258031042920002F08F500AB
:10016800F6017608003A0319BA2804297508003AF6
:1001780003192F28013A03194028033A031949287B
:10018800013A03194D28073A03195128013A03196E
:100198005528033A03195928013A03195D280F3ADB
:1001A80003196128013A03196528033A03196928D4
:1001B800013A03196D28073A03197128013A0319FE
:1001C8007528033A03197928013A031940281F3A78
:1001D80003194928013A03194D28033A03195128EC
:1001E800013A03195528073A03195928013A0319FE
:1001F8005D28033A03198428013A03198828042939
:10020800080071297A1C09290A299429863191261E
:1002180081310130F40074082000AB0722000C146F
:100228000E14F701F80194297D087802031D1E2990
:100238007C087702031C21292229942922008C1486
:100248000130F40074082000AB0715297D087802F6
:10025800031D30297C087702031C3329342994298B
:1002680022000C150C1724297D087802031D3E294D
:100278007C087702031C41294229942922008C1505
:1002880024297D087802031D4B297C087702031C6A
:100298004E294F29942922000C168C1724297D08F1
:1002A8007802031D59297C087702031C5C295D2903
:1002B800942922008C1624297D087802031D6629BA
:1002C8007C087702031C69296A29942922008E1464
:1002D8002429AB01F701F801942920002B08F40028
:1002E800F5017508003A03197A296D297408003A4E
:1002F80003190629013A03191829033A03192A2967
:10030800013A03193829073A03194529013A03190B
:100318005329033A03196029013A031994296D29CD
:1003280008002000300803199A299B29AB29B0013D
:100338008131EC218131823130228131863114269C
:1003480081318631522681318631852681312000DE
:100358002E08031DB029B129BE297A18B429B52958
:10036800BE2979080319B929BA29C02980312E2054
:100378008131C029AF01F90120002C08031DC529CE
:10038800C629CA29813105218131CB29AB01200039
:1003980029080319D029D129EB297908031DD52962
:1003A800D629EB29FA1CD929DA29DE2985318F25A6
:1003B8008131EB297A1DE129E229E6298531752564
:1003C8008131EB298631912681312000AE01080068
:1003D800F001873103278131003A0319F429F529FF
:1003E800F629701487310B278131003A0319FD294A
:1003F800FE29FF29F0148631F6268131003A0319C7
:10040800062A072A082A70158631EC268131003A17
:1004180003190F2A102A112AF0158731072781316D
:10042800003A0319182A192A1A2A70168631F12651
:100438008131003A0319212A222A232AF0162000A2
:10044800280870060319292A2A2A2D2A7008A800C4
:100458002F2A7008FA0008007A1C332A342A3A2A0C
:100468002000AD01AD0AA901AC01642A20002D08C5
:1004780003193F2A402A512A8631912682312000C9
:10048800A401A501FA302A0203184B2A4C2A612A32
:100498000130F4007408AA07612A02302502583096
:1004A800031924020318592A5A2A5F2A0130A4077B
:1004B8000030A53D612AA901A90AAD01AC01AC0A29
:1004C80008000A30F40020008D1C6B2A6C2A6D2A63
:1004D800952AF3018631B326823187312427823168
:1004E80074088631022682318631CA2682318731E4
:1004F8002127823174080A3C863102268231013074
:10050800F2007208F30732307302031C8C2A8D2A1A
:100518006E2AFF30F2007208F407F41F942A952A15
:10052800672A8731212782310800F401F40A200064
:100538008D1C9F2AA02AA12AC62AF30122000C1486
:100548000E14740886310226823122000C100E1017
:1005580074080A3C8631022682310130F2007208A2
:10056800F30707307302031CBA2ABB2AA22A0130F8
:10057800F2007208F4077408803A753E031CC52A15
:10058800C62A9B2A22000C140E140800F401F40A4F
:1005980020008D1CD02AD12AD22AF72AF301220062
:1005A8000C150C17740886310226823122000C11B2
:1005B8000C1374080A3C8631022682310130F2009D
:1005C8007208F30707307302031CEB2AEC2AD32ABC
:1005D8000130F2007208F4077408803A753E031C73
:1005E800F62AF72ACC2A22000C150C1708000A3024
:1005F800F40020008D1C012B022B032B282BF30168
:1006080022000C168C1774088631022682312200CB
:100618000C128C1374080A3C863102268231013090
:10062800F2007208F30707307302031C1C2B1D2B02
:10063800042BFF30F2007208F4077408803A7F3EFA
:100648000318272B282BFD2A22000C128C130800D4
:10065800F401F40A20008D1C322B332B342B592B38
:10066800F30122000C168C17740886310226833198
:1006780022000C128C1374080A3C8631022683313E
:100688000130F2007208F30707307302031C4D2B88
:100698004E2B352B0130F2007208F4077408803AAB
:1006A800753E031C582B592B2E2B22000C168C1729
:1006B80008000A30F40020008D1C632B642B652B86
:1006C8008A2BF30122000C150C17740886310226B8
:1006D800833122000C110C1374080A3C863102265F
:1006E80083310130F2007208F30707307302031CEC
:1006F8007E2B7F2B662BFF30F2007208F4077408FC
:10070800803A7F3E0318892B8A2B5F2B22000C111D
:100718000C1308000A30F40020008D1C942B952B34
:10072800962BBB2BF30122000C140E14740886318F
:100738000226833122000C100E1074080A3C863100
:10074800022683310130F2007208F3070730730282
:10075800031CAF2BB02B972BFF30F2007208F40765
:100768007408803A7F3E0318BA2BBB2B902B2200CB
:100778000C100E1008000A30F40020008D1CC52B48
:10078800C62BC72BEA2BF30122008E14740886317E
:100798000226833122008E1074080A3C8631022614
:1007A80083310130F2007208F30707307302031C2B
:1007B800DE2BDF2BC82BFF30F2007208F407740819
:1007C800803A7F3E0318E92BEA2BC12B22008E10BA
:1007D8000800F401F40A20008D1CF32BF42BF52BF0
:1007E800182CF30122008C147408863102268331F8
:1007F80022008C1074080A3C8631022683310130AD
:10080800F2007208F30707307302031C0C2C0D2C3E
:10081800F62B0130F2007208F4077408803A753E2E
:10082800031C172C182CEF2B22008C1408000A30FC
:10083800F40020008D1C212C222C232C462CF301A3
:1008480022008C16740886310226843122008C120C
:1008580074080A3C8631022684310130F20072089D
:10086800F30707307302031C3A2C3B2C242CFF306F
:10087800F2007208F4077408803A7F3E0318452C8A
:10088800462C1D2C22008C120800F401F40A2000CA
:100898008D1C4F2C502C512C742CF30122008C15DC
:1008A800740886310226843122008C1174080A3CAF
:1008B8008631022684310130F2007208F3070730CE
:1008C8007302031C682C692C522C0130F200720848
:1008D800F4077408803A753E031C732C742C4B2C57
:1008E80022008C1508000A30F40020008D1C7D2C95
:1008F8007E2C7F2CA22CF30122008C1574088631E3
:100908000226843122008C1174080A3C86310226A2
:1009180084310130F2007208F30707307302031CB8
:10092800962C972C802CFF30F2007208F40774087C
:10093800803A7F3E0318A12CA22C792C22008C111E
:100948000800F401F40A20008D1CAB2CAC2CAD2C53
:10095800D02CF30122008C167408863102268431CB
:1009680022008C1274080A3C863102268431013038
:10097800F2007208F30707307302031CC42CC52C5D
:10098800AE2C0130F2007208F4077408803A753E04
:10099800031CCF2CD02CA72C22008C1608000A3060
:1009A800F40020008D1CD92CDA2CDB2CFE2CF30152
:1009B80022008C14740886310226843122008C109F
:1009C80074080A3C8631022684310130F20072082C
:1009D800F30707307302031CF22CF32CDC2CFF30D6
:1009E800F2007208F4077408803A7F3E0318FD2C61
:1009F800FE2CD52C22008C100800F401F40A2000EB
:100A08008D1C072D082D092D2C2DF30122008E1485
:100A1800740886310226853122008E1074080A3C3B
:100A28008631022685310130F2007208F30707305B
:100A38007302031C202D212D0A2D0130F2007208AB
:100A4800F4077408803A753E031C2B2D2C2D032DBA
:100A580022008E1408000A30F40020008D1C352D69
:100A6800362D372D592DF30187312127853174080B
:100A780086310226853187312427853174080A3C5E
:100A88008631022685310130F2007208F3071930E9
:100A98007302031C502D512D382DFF30F2007208BF
:100AA800F407F41F582D592D312D0800682D20000A
:100AB8008D1C5F2D602D612D742D0B30F200483098
:100AC800890B642DF20B642D0130F0020030F13BEC
:100AD800700A031D732D710A031D732D742D5B2D70
:100AE8000800FA1D782D792D7D2D8631CA2685318D
:100AF800802D8731242785318631AB268531FA1D33
:100B0800862D872D8B2D8731212785318E2D863196
:100B1800B32685310800FA1D922D932D972D863125
:100B2800CA2685319A2D8731242785318631BB26FF
:100B38008531FA1DA02DA12DA52D873121278531BD
:100B4800A82D8631B32685310800220090018C013A
:100B58008D018E010830210090008C01FF308D003E
:100B6800E0308E0023008D018C01240090018D015E
:100B78002100951722009D0108008531EF25853158
:100B88003430F0000630F1008631D72685318731C0
:100B98002927853122000E158B170B1781319521D6
:100BA8008531D22D803113287108F3007008F200C6
:100BB800F336F20CF336F20C720825009100700837
:100BC8000339F2000430F235890BE72D1308CF39C9
:100BD8007204930008008531A9258531863179266C
:100BE80085318631FF268531863144268531863127
:100BF8009B2685318631602685310800F1000A2E52
:100C0800EC300032890B052E00320032FF30F00044
:100C18007008F107710A031D122E132E042E080006
:100C2800200029080319192E1A2E232E02302A060D
:100C3800031D1F2E202E222EF901F90AAA010800F1
:100C48000B117B08200095002608270403192D2E78
:100C58002E2E332E27088A0026080A00863108001F
:100C68002000B001B00A0130A0070030A13D0030DB
:100C7800A23D0030A33D0130F7070030F83D0800E1
:100C88003C30250093009501803094000130960097
:100C98009201F9309100FC309E0508007A1E552E0D
:100CA800562E5B2EE830FC000330FD005F2E21300D
:100CB800FC000030FD00080021001508C039143878
:100CC80095000630200095000630FB000B118B16AE
:100CD80008000030200091180130F0007008031956
:100CE800762E772E782E911008007030210099000A
:100CF80098012200960121001A1F832E842E7F2E30
:100D080008007A1D882E892E8D2E87311B27863163
:100D1800902E87311E27863108008631CA268631F3
:100D28008731242786318631A32686310800F93099
:100D380020009B009A01911007309C000800E830C1
:100D4800F0000330F1008531D825863108003C30A9
:100D5800F0000030F1008531D82586310800FF30D9
:100D680022008C000330F00070088E040800583010
:100D7800F0000230F1008531D825863108000030B6
:100D8800F000F1008531D8258631080022008C0159
:100D9800FC30F00070088E05080064008001013105
:100DA800890BD22E003471082000A7007008A60015
:100DB8000800F000700820009A000800F000700891
:100DC80020009B000800F000700820009500080033
:100DD80020000E0E890C0139080020000D0C890C2A
:100DE8000139080020000D0E890C013908007B0824
:100DF8002000950008001630210097000800200008
:100E08000D0C0139080020000D08013908002000E8
:100E18000D0E0139080020001C11080020001C15C7
:100E2800080020001A080800200015080800220001
:100E38000E16080022000E12080022008E15080067
:0E0E480022008E11080021340034080008003A
:020000040001F9
:04000E00E43FFF1FAD
:00000001FF
