:040000008031132810
:100008007E1480318B1E09280A2811280B1D0D2803
:100018000E2811288431682480317E10090080312F
:10002800152885314F258031A8008531502580312C
:10003800A900F001F101F201F301F401F501F60163
:10004800F701A001A101A201A301A401A501A60134
:10005800A7017E1020008331B82B740803193528B6
:1000680036283928F501F101F7287508031D3D28C0
:100078003E28C028F101F7288431C324803101309B
:10008800F10700302000A3000030A2000030A100DA
:100098000030A000F72882319D2280310130F1071D
:1000A800F7288231702280315228823140228031F3
:1000B80052288231102280310730F8000030F900D0
:1000C80083319D23803152288231F6228031522893
:1000D8008231CA228031522883314C238031522800
:1000E8008331222380310730F8000030F900833152
:1000F8009D238031FA30F8000030F90083319D23C8
:10010800803152288131E02180314930FC00B930FA
:10011800890B8C28FC0B8C2800004930FC00B93076
:10012800890B9428FC0B94280000522877189D28E6
:100138009E28A228F71CA128A228A928F101F501C8
:100148000130F4008431C324803120002308031DCA
:10015800B8282208031DB828983020023A30213BDD
:10016800031CB728B828F728833176238031F1019A
:10017800F5010130F400F7287108FC00FD017D0845
:10018800003A0319C828F7287C08003A03194028C0
:10019800013A03194F28033A03195528013A03195C
:1001A8005928073A03195D28013A03196828033AC0
:1001B80003196C28013A031970280F3A0319742897
:1001C800013A03194F28033A03195528013A03192C
:1001D8005928073A03195D28013A03198628033A72
:1001E80003199A28F728080075080319FC28FD2820
:1001F800FE2863297718012902294A29F20163296F
:10020800771C0729082963298431C32480310130E8
:10021800F20722000C148C148C162000A601A701EA
:100228006329200029082702031D1C292808260203
:10023800031C1F292029632922000C158C158C17F3
:100248000130F2071129200029082702031D2E2951
:1002580028082602031C31293229632922000C169A
:100268000E140C172429200029082702031D3E29F3
:1002780028082602031C41294229632922008E14DA
:100288002429F2012000A601A70163297208FC00B5
:10029800FD017D08003A0319522945297C08003AD6
:1002A80003190429013A03191529033A03192729BF
:1002B800013A03193729073A031963294529080020
:1002C800F80185312B258131003A03196C296D29F4
:1002D8006E297814853133258131003A031975293F
:1002E80076297729F814853119258131003A0319BF
:1002F8007E297F298029781585310F258131003A9B
:100308000319872988298929F81585312F258131ED
:10031800003A0319902991299229781685311425D4
:100328008131003A031999299A299B29F8167308EB
:1003380078060319A029A129A4297808F300A62979
:100348007808F700080076080319AB29AC29BC29FE
:10035800F60181316421813184315824813184311D
:10036800AC248131F71EB929BA29BC290130F5001E
:100378008031312081318031F82081317508031DA9
:10038800C629C729DF297718CA29CB29DF29F71CED
:10039800CE29CF29D3298331EC238131DF29771D59
:1003A800D629D729DB298331D2238131DF2984312A
:1003B800C3248131F40108000A30FA0020008D1CA2
:1003C800E629E729E8290C2AF9018431FA24813140
:1003D80085314C2581317A08843148248131853131
:1003E8001E2581318531492581317A080A3C8431BD
:1003F800482481310130F90732307902031C052A7B
:10040800062AE929FF30FA07FA1F0B2A0C2AE229E3
:1004180085314925813108000130FA0020008D1C02
:10042800162A172A182A3B2AF90122008C160C14BE
:100438008C147A0884314824823122008C120C10E2
:100448008C107A080A3C8431482482310130F9073B
:1004580007307902031C312A322A192A0130FA0797
:100468007A08803A753E031C3A2A3B2A122A22004F
:100478008C160C148C1408000130FA0020008D1C16
:10048800462A472A482A6B2AF90122008C170C159C
:100498008C157A0884314824823122008C130C117F
:1004A8008C117A080A3C8431482482310130F907DA
:1004B80007307902031C612A622A492A0130FA07A7
:1004C8007A08803A753E031C6A2A6B2A422A22005F
:1004D8008C170C158C1508000130FA0020008D1CB3
:1004E800762A772A782A992AF90122000C170C16FD
:1004F8007A0884314824823122000C130C127A08BD
:100508000A3C8431482482310130F90707307902E6
:10051800031C8F2A902A792A0130FA077A08803A30
:10052800753E031C982A992A722A22000C170C1669
:1005380008000130FA0020008D1CA32AA42AA52A4D
:10054800C62AF90122008E140E147A088431482430
:10055800823122008E100E107A080A3C8431482419
:1005680082310130F90707307902031CBC2ABD2A01
:10057800A62A0130FA077A08803A753E031CC52A74
:10058800C62A9F2A22008E140E1408000A30FA0088
:1005980020008D1CD02AD12AD22AF52AF90122005E
:1005A8008C170C158C157A08843148248231220066
:1005B8008C130C118C117A080A3C8431482482313E
:1005C8000130F90707307902031CEB2AEC2AD32AF9
:1005D800FF30FA077A08803A7F3E0318F42AF52A92
:1005E800CC2A08000A30FA0020008D1CFC2AFD2ABB
:1005F800FE2A212BF90122008C160C148C147A087F
:1006080084314824823122008C120C108C107A0814
:100618000A3C8431482482310130F90707307902D5
:10062800031C172B182BFF2AFF30FA077A08803A89
:100638007F3E0318202B212BF82A08000A30FA00E5
:1006480020008D1C282B292B2A2B4B2BF90122004B
:100658000E148E147A0884314824833122000E1037
:100668008E107A080A3C8431482483310130F90716
:1006780007307902031C412B422B2B2BFF30FA0742
:100688007A08803A7F3E03184A2B4B2B242B08000C
:100698000A30FA0020008D1C522B532B542B752B3B
:1006A800F90122000C170C167A088431482483318A
:1006B80022000C130C127A080A3C84314824833136
:1006C8000130F90707307902031C6B2B6C2B552B73
:1006D800FF30FA077A08803A7F3E0318742B752B8F
:1006E8004E2B08000A30FA0020008D1C7C2B7D2B35
:1006F8007E2B9C2BF9018531492583317A08843179
:100708004824833185314C2583317A080A3C843169
:10071800482483310130F90719307902031C952BDD
:10072800962B7F2BFF30FA07FA1F9B2B9C2B782BDD
:100738000800AB2B20008D1CA22BA32BA42BB72BBE
:100748000B30FA004830890BA72BFA0BA72B013086
:10075800F8020030F93B780A031DB62B790A031D0D
:10076800B62BB72B9E2B0800843135248331783083
:10077800F8000430F9008431F42483318431C3242F
:10078800833185316A25833122000E158B170B17AB
:100798008131A7218331CC2B80311328F71DD52B2C
:1007A800D62BDA2B85311E258331DD2B85314C255F
:1007B80083318431DD248331F71DE32BE42BE82BCF
:1007C800853149258331EB2B8431FA2483310800A4
:1007D800F71DEF2BF02BF42B85311E258331F72BDA
:1007E80085314C2583318431E5248331F71DFD2B78
:1007F800FE2B022C853149258331052C8431FA24BE
:1008080083310800220090018C018D018E0108308F
:10081800210090008C01FF308D00E0308E00230015
:100828008D018C01240090018D0121009517220073
:100838009D0108007908FB007808FA00FB36FA0CDD
:10084800FB36FA0C7A082500910078080339FA007B
:100858000430FA35890B2D2C1308CF397A0493000C
:1008680008008431062484318431A0248431853100
:10087800272584318431932484318431CD248431F3
:100888008431862484310800F800502CEC30003282
:10089800890B4B2C00320032FF30F807780A031D11
:1008A800562C572C4A2C0800771E5B2C5C2C622C8B
:1008B800FA302000A8000030A900672C3930200049
:1008C800A8000030A90008000B117008200095004E
:1008D800240825040319712C722C772C25088A000A
:1008E80024080A00843108000130F6000130200095
:1008F800A0070030A13DA23DA33D0130A60700306E
:10090800A73D080021001508C039143895000630A5
:10091800200095000630F0000B118B1608000C30F3
:1009280025009300950180309400013096009201D3
:100938009101FC309E050800703021009900980153
:100948002200960121001A1FAA2CAB2CA62C080005
:10095800771DAF2CB02CB42C853143258431B72CAE
:1009680085314625843108002000110C0139F80032
:1009780078080319C02CC12CC22C911008008531AD
:100988001E25843185314C2584318431D524843128
:100998000800C73020009B009A01911007309C0086
:1009A80008002030F8000330F90084311E24843117
:1009B80008003030F8000030F90084311E248431FA
:1009C8000800E030F8000130F90084311E24843139
:1009D80008000030F800F90084311E248431080032
:1009E80079082000A5007808A4000800FF3022003C
:1009F8008C0003308E040800F800780820009A0064
:100A08000800F800780820009B000800F800780823
:100A180020009500080020000E0E890C01390800FE
:100A280020000D0C890C0139080020000D0E890CDE
:100A38000139080022008C01FC308E05080070087E
:100A480020009500080016302100970008002000BB
:100A58000D0C0139080020000D080139080020009C
:100A68000D0E0139080020001C11080020001C157B
:100A7800080020001A0808002000150808002200B5
:100A88000E16080022000E12080022008E1508001B
:100A980022008E11080039340034E83403349834C5
:100AA8003A349034013430340034E03401342034A2
:100AB80003346434003401342034103408340434EA
:100AC800023401340A340734FA343934080008008F
:020000040001F9
:08000000FF3FFF3FFF3FFF3F00
:04000E00E43FFF1FAD
:00000001FF
